:100000000C942A000C9447000C9447000C94470071
:100010000C9447000C9447000C9447000C941F0369
:100020000C9447000C9447000C9447000C94470034
:100030000C9447000C9447000C9447000C94470024
:100040000C9447000C9447000C9447000C94470014
:100050000C94470011241FBECFE5D8E0DEBFCDBF12
:1000600010E0A0E6B0E0E8EEF7E102C005900D92E6
:10007000A637B107D9F726E0A6E7B0E001C01D9288
:10008000A33BB207E1F70E9472000C94F20B0C94B0
:10009000000097B321E030E001C0220F8A95EAF713
:1000A000292B27BB089598B321E030E001C0220F2F
:1000B0008A95EAF7292728BB089598B321E030E014
:1000C00001C0220F8A95EAF7292B28BB089598B31F
:1000D00021E030E001C0220F8A95EAF7209529231C
:1000E00028BB089581E00E943B069093B20680935E
:1000F000B106E12CF12C00E020E030E045E550E0D5
:1001000064E670E083E990E00E94760720E030E04A
:1001100045E550E06AE670E086EE90E00E947607E2
:100120000E947708FFCFCF93DF9300D0CDB7DEB723
:1001300080916200811141C00E94A7089A8389833F
:1001400000ED17E012C0109361000093600020E002
:1001500040E050E060E070E08091B1069091B2061E
:100160000E94950584E00E94670020E04FEF5FEF5A
:1001700060E070E08091B1069091B2060E94550651
:1001800084E00E945D0086E00E9453006091600060
:1001900070916100CE0101960E941C0A809160005E
:1001A000909161008C3A2DE0920768F68C599F4F30
:1001B0009093610080936000CACF84E00E94490060
:1001C00086E00E94490010926200B6CFCF93DF9381
:1001D00000D0CDB7DEB780916300811141C00E948D
:1001E000A7089A83898300ED17E012C0109361007D
:1001F0000093600020E040E050E060E070E080911B
:10020000B1069091B2060E94950585E00E946700B4
:1002100020E04FEF5FEF60E070E08091B1069091D9
:10022000B2060E94550685E00E945D0087E00E94AC
:1002300053006091600070916100CE0101960E94B0
:100240001C0A8091600090916100853F21E0920737
:1002500068F2845691099093610080936000CACF40
:1002600085E00E94490087E00E94490010926300E7
:10027000B6CFFC010396928381832FEF3FEF348347
:100280002383968385839087878310820895FC015A
:10029000118610860895CF93DF939C01FB01DC014A
:1002A0001196CD91DC911297D383C2838C819D816D
:1002B000958384838C819D81DC0113967C936E935E
:1002C00012977D836C8331872087F90180818F5F4E
:1002D0008083DF91CF910895CF93DF93EB01488125
:1002E00059814F3F2FEF520701F1DC01139601C0F6
:1002F000DF011296ED91FC91139720813181421715
:100300005307B0F7FB83EA83D583C483BD83AC83F3
:100310001396DC93CE93129799878887FC012081EE
:100320002F5F2083DF91CF910895FC01A781B085D5
:100330001296ED91FC911397E5CFCF93DF93FC01DB
:10034000A085B1852281338184819581E9019D83D6
:100350008C8384819581EC013B832A8311962D91B6
:100360003C911297E217F30741F0118610868C91A9
:1003700081508C93DF91CF91089512969C938E9328
:100380001197118610868C9181508C93DF91CF91BB
:10039000089531E1FC013083319722E220833197C7
:1003A000A3E3A083319760833197708331971082E4
:1003B000319760E8608331971082319762E0608303
:1003C000319763E06083319764E06083319765E043
:1003D0006083319766E06083319767E0608331978F
:1003E00068E06083319769E06083319760E1608302
:1003F00031973083319732E13083319733E1308365
:10040000319734E13083319735E13083319736E1EC
:100410003083319737E13083319738E1308331973A
:1004200039E13083319730E23083319731E23083E4
:1004300031972083319723E220833197408331978E
:100440005083319726E22083319727E2208331972A
:1004500028E22083319729E22083319720E320830B
:10046000319721E32083869708951BBC8EE08ABDD7
:100470008BE08EBD89B7806189BFA091AF06B09136
:10048000B006CD91CDBFDD91DEBFFF91EF91DF9141
:10049000CF91BF91AF919F918F917F916F915F911C
:1004A0004F913F912F911F910F91FF90EF90DF900F
:1004B000CF90BF90AF909F908F907F906F905F9004
:1004C0004F903F902F901F900F900FBE0F90089568
:1004D00081E008950F920FB6F8940F921F921124A5
:1004E0002F923F924F925F926F927F928F929F9244
:1004F000AF92BF92CF92DF92EF92FF920F931F9332
:100500002F933F934F935F936F937F938F939F931B
:10051000AF93BF93CF93DF93EF93FF93A091AF0679
:10052000B091B0060DB60D920EB60D920E944C0A17
:10053000A091AF06B091B006CD91CDBFDD91DEBFE9
:10054000FF91EF91DF91CF91BF91AF919F918F91EB
:100550007F916F915F914F913F912F911F910F91DB
:10056000FF90EF90DF90CF90BF90AF909F908F90D3
:100570007F906F905F904F903F902F901F900F90C3
:100580000FBE0F9008950F920FB6F8940F921F921E
:1005900011242F923F924F925F926F927F928F928F
:1005A0009F92AF92BF92CF92DF92EF92FF920F9302
:1005B0001F932F933F934F935F936F937F938F93EB
:1005C0009F93AF93BF93CF93DF93EF93FF93A0914C
:1005D000AF06B091B0060DB60D920EB60D920E9408
:1005E000B10881110E944C0AA091AF06B091B006EB
:1005F000CD91CDBFDD91DEBFFF91EF91DF91CF9126
:10060000BF91AF919F918F917F916F915F914F912A
:100610003F912F911F910F91FF90EF90DF90CF901E
:10062000BF90AF909F908F907F906F905F904F9012
:100630003F902F901F900F900FBE0F9008950E9433
:10064000C3021895CF93DF93EC01AEE7B0E001C091
:10065000DF01ED91FC911197EC17FD07C8F312969D
:100660002D913C911397CD01820F931FC817D90785
:1006700091F08A819B819E01280F391FE217F307B1
:10068000C9F0F983E883CA17DB0711F0CD93DC9337
:10069000DF91CF9108958A819B81820F931F1396DA
:1006A0009C938E931297ED019E01280F391FE2173C
:1006B000F30739F720917C0030917D00E217F307B2
:1006C00001F322813381820F931F9B838A83808170
:1006D000918199838883D7CFCF92DF92EF92FF9257
:1006E0000F931F93CF93DF93EC010E94A108809199
:1006F0007C0090917D00892B09F476C0C090760033
:10070000D0907700C6018C239D23892B09F051C01E
:10071000209709F44EC0BE016C5F7F4F09F449C0B9
:1007200000917A0010917B000617170708F441C06A
:10073000C0917E00D0917F00EEE7F0E007C02881F5
:1007400039812115310539F0FE01E9014A815B81CA
:1007500046175707A0F380917C0090917D00C81741
:10076000D90739F1E080F18084E0E80EF11C88813E
:100770009981918380839A01261B370B293031059B
:1007800030F5041B150B10937B0000937A008091C9
:100790007800909179000817190720F410937900D8
:1007A000009378004C295D295B834A831982188263
:1007B00002C0E12CF12C0E948B09C701DF91CF917F
:1007C0001F910F91FF90EF90DF90CF900895CE0191
:1007D000860F971FFC01338322837B836A830E94E9
:1007E00022034A815B81CDCF82E890E090937F0025
:1007F00080937E0010928100109280002AE536E0FE
:1008000030937D0020937C0010925D0610925C0670
:1008100010925B0610925A0688ED95E09093850041
:10082000809384003093830020938200909379001A
:100830008093780090937B0080937A0080E090E82A
:100840009093770080937600C12C80E8D82E5ACF01
:10085000CF93DF93009789F0EC0124978A819B81E5
:100860002091760030917700AC0142235323452B31
:1008700021F048815981452B19F0DF91CF910895DE
:1008800020953095822393239B838A830E94A1081D
:1008900020917A0030917B008A819B81820F931F87
:1008A00090937B0080937A00CE010E942203DF9117
:1008B000CF910C948B090F931F93CF93DF93EC018F
:1008C000042F1A8D4C8D41110DC088819981892B7F
:1008D00009F443C01F5F80E01A8FDF91CF911F9111
:1008E0000F91089550E0011115C08C819D810E94E7
:1008F000E90B2C8D8C819D81820F911D9D838C83B2
:100900002A813B818217930728F3888199819D83EF
:100910008C83E0CF8E819F810E94E90B8C8D90E0CB
:100920009195819591092E813F81280F391F3F8331
:100930002E83488159812417350730F42A813B8161
:10094000820F931F9F838E83023021F6112311F0B3
:1009500080E0C2CF11E080E0BFCF8A819B810E94FE
:10096000960B1B821A821F5FB7CFFC01CB01448D0F
:10097000442391F050E066817781640F751F77837F
:100980006683228133816217730720F06081718151
:10099000778366830C94E90B0895EF92FF920F938F
:1009A0001F93CF938C010FB6F8940F92FC01C68D64
:1009B0001C16C4F4FC0181898823A1F07801F1E1BF
:1009C000EF0EF11C06C0C15069F0F801818988233F
:1009D00049F0C7010E94A10A8823A9F30E942F0BA6
:1009E000C15099F78FEFF801868F0F900FBE0FB6A9
:1009F000F8940F92C58D1C16C4F4F80180858823E5
:100A0000A1F07801F8E0EF0EF11C06C0C15069F0CA
:100A1000F8018085882349F0C7010E94A10A882334
:100A2000A9F30E942F0BC15099F78FEFF801858F22
:100A30000F900FBECF911F910F91FF90EF900895EF
:100A4000CF93DF93EC010FB6F8940F922881398190
:100A50009B8D4C8D949FC0011124F901E80FF91F63
:100A6000FB83EA831A8E3D832C83841B9109820FBA
:100A7000931F9F838E838FEF8D8F8E8F611112C096
:100A80008885811106C00F900FBE81E0DF91CF9164
:100A90000895CE0108960E94A10A8823A1F30E941E
:100AA0006A02F1CFCE0108960E943901CE0141962B
:100AB0000E9439010F900FBE81E0DF91CF91089520
:100AC0000F931F93CF93DF93082F162F6623C1F048
:100AD000869FC00111244F960E946C03EC01009781
:100AE00049F04F96998388830B8F1C8F61E0CE016C
:100AF0000E942005CE01DF91CF911F910F910895A3
:100B00008FE190E00E946C03EC01892B99F3D9836B
:100B1000C8830B8F1C8F61E0CE010E942005CE019F
:100B2000DF91CF911F910F910895BF92CF92DF92E5
:100B3000EF92FF920F931F93CF93DF9300D000D0DB
:100B40001F92CDB7DEB78C016B015D834C83B22E53
:100B500020E07C0188E0E80EF11C0FB6F8940F92BB
:100B6000F801928D838D981708F453C0F2E0BF16F8
:100B700009F44FC08C819D81892B09F467C0222321
:100B800009F43EC00F900FBE0E94A1080FB6F89462
:100B90000F92F801858D8F3F09F439C0F801868DD9
:100BA0008F3F99F10F900FBEBE016C5F7F4FCE015A
:100BB00001960E94F90A81114DC00FB6F8940F9268
:100BC000F801928D0F900FBE838D981312C06C8127
:100BD0007D81C7010E94910AC8010E94CD040E9434
:100BE0008B09882311F021E0B8CF0E946A0221E02E
:100BF000B4CFC8010E94CD040E948B0921E0ADCF83
:100C0000CE0101960E94EE0ABDCF168ECBCF158E77
:100C1000C5CF4B2DB601C8010E945B04F801918934
:100C2000911122C081111DC00F900FBE81E00F9065
:100C30000F900F900F900F90DF91CF911F910F9118
:100C4000FF90EF90DF90CF90BF9008950F900FBE70
:100C500080E0EDCFC8010E94CD040E948B0980E0A6
:100C6000E6CF0E946A02E0CFC80141960E94A10A25
:100C70008823D1F2F6CFCF93DF93482F60E081E055
:100C80000E946005EC01009761F01B821A821982B4
:100C900018821E8220E040E050E060E070E00E9498
:100CA0009505CE01DF91CF910895AF92BF92CF927B
:100CB000DF92EF92FF920F931F93CF93DF9300D0B9
:100CC00000D01F92CDB7DEB78C015B015D834C83F2
:100CD000E22E20E06C0181E1C80ED11C0FB6F89421
:100CE0000F92F801F28CF11080C08C819D81892BCC
:100CF00009F492C0222309F45AC00F900FBE0E943B
:100D0000A1080FB6F8940F92F801858D8F3F09F472
:100D100053C0F801868D8F3F09F454C00F900FBE69
:100D2000BE016C5F7F4FCE0101960E94F90A8111CE
:100D300020C00FB6F8940F92F801828D0F900FBE6D
:100D4000811142C080819181892B09F444C06C815A
:100D50007D81C6010E94910AC8010E94CD040E94B3
:100D60008B09882311F021E0B9CF0E946A0221E0AB
:100D7000B5CFC8010E94CD040E948B090FB6F8942C
:100D80000F92F801828D0F900FBE8111ECCF0F9062
:100D90000F900F900F900F90DF91CF911F910F91B7
:100DA000FF90EF90DF90CF90BF90AF900895CE016D
:100DB00001960E94EE0AA1CF158EF801868D8F3F15
:100DC00009F0ACCF168EAACFC8010E94CD040E94B4
:100DD0008B0921E083CF0FB6F8940F928281938123
:100DE0000E94330B0F900FBEB2CFC680D780B501E3
:100DF000C8010E94B504E11013C0FA94F801F28E04
:100E000080819181892B11F1F8018085811117C0B2
:100E10000F900FBE81E0BBCF0F900FBE80E0B7CF29
:100E2000F801D782C6828189882391F3C80141964F
:100E30000E94A10A882361F30E946A02E9CFC801D7
:100E400008960E94A10A882319F3F6CF0E94D70BB7
:100E5000F80193838283D8CF80918B068230F0F3A0
:100E60000E946A02F9CF0F931F93CF93DF93EC0197
:100E70000091690610916A068091AF069091B006C4
:100E800002960E949D01C00FD11FE091AF06F09124
:100E9000B006D383C2836091AF067091B006C017CD
:100EA000D107C0F080917706909178066E5F7F4FF2
:100EB0000E946C018091610690916206C817D90763
:100EC00020F4D0936206C0936106DF91CF911F9109
:100ED0000F91089580917506909176066E5F7F4F11
:100EE000DF91CF911F910F910C946C015F926F92E3
:100EF0007F928F929F92AF92BF92CF92DF92EF92AA
:100F0000FF920F931F93CF93DF934C01162F572E11
:100F10006A015901CA010E946C033C01892B09F442
:100F2000E4C088E290E00E946C03EC01892B09F494
:100F3000D9C0788E6F8A81E0C81AD108C60CD71C38
:100F4000BE01675E7F4FE12FF52D9F01285F3F4F68
:100F5000CF014191DB014D93BD01DC018C918823D0
:100F600019F0E217F307A1F718A2043008F0B4C093
:100F70000E8B09A31AA23E01B2E06B0E711CC301D5
:100F80000E944701CE010C960E944701D987C8876D
:100F900084E090E0801B91099D878C87DB8BCA8B56
:100FA0001BA21CA21DA21EA21FA2A501B401C60164
:100FB0000E94C90199838883E114F10419F0F701B3
:100FC000D183C0830FB6F8940F9280916B068F5F28
:100FD00080936B068091AF069091B006892B89F0C3
:100FE0008091670681113DC0E091AF06F091B00697
:100FF0008E8996898917B0F1D093B006C093AF0659
:1010000031C0D093B006C093AF0680916B0681309B
:1010100041F58BE896E00E94390184E996E00E9450
:1010200039018DE996E00E94390186EA96E00E9436
:10103000390182E896E00E94390189E796E00E9432
:1010400039018CE696E00E94390182E896E090939F
:1010500078068093770689E796E0909376068093EA
:1010600075068E89909163069F5F909363069091B9
:101070006806981770F190E09C01220F331F220F31
:10108000331F220F331F820F931FB3018557994FD0
:101090000E944B010F900FBE80916706882341F09C
:1010A000E091AF06F091B00696898E899817B0F05E
:1010B00081E0DF91CF911F910F91FF90EF90DF9032
:1010C000CF90BF90AF909F908F907F906F905F90E8
:1010D000089580936806CFCF03E04ACF0E946A024A
:1010E00081E0E7CFC3010E9428048FEFE2CFEF92A7
:1010F000FF920F938FE5E82E86E0F82E00E020E0C7
:1011000030E045E550E060E770E08CE297E00E9457
:101110007607813021F00F91FF90EF900895F894B9
:101120002FEF3FEF309362062093610680936706AE
:1011300010926A06109269060F91FF90EF900C943E
:10114000350280915E068F5F80935E0608950FB62C
:10115000F8940F928091690690916A060F900FBEE5
:101160000895DF92EF92FF920F931F93CF93DF9337
:1011700080915E068111B2C0E0906906F0906A0627
:101180008FEFE81AF80AF0926A06E0926906E11415
:10119000F10411F5809177069091780620917506FB
:1011A00030917606309378062093770690937606F2
:1011B00080937506809164068F5F80936406E0914A
:1011C0007706F0917806808181118FC08FEF9FEFB5
:1011D0009093620680936106809161069091620609
:1011E000D12CE816F90608F453C0E0917706F09187
:1011F00078068081882309F445C0E0917706F09154
:1012000078060580F681E02DC681D7818A819B8191
:10121000E816F90608F47AC08E010E5F1F4FC80168
:101220000E949D018C899D89892B21F0CE010C960D
:101230000E949D018E8990916806981710F4809302
:10124000680690E09C01220F331F220F331F220FEC
:10125000331F820F931FB8018557994F0E944B018E
:10126000E091AF06F091B0069E898689981708F440
:10127000BCCFDD24D394E0917706F091780680818D
:101280008111BBCF8FEF9FEF909362068093610631
:10129000E091AF06F091B006868990E0FC01EE0F78
:1012A000FF1FEE0FFF1FEE0FFF1F8E0F9F1FFC0192
:1012B000E557F94F8081823010F0DD24D39480917E
:1012C0006506882311F0DD24D3948D2DDF91CF9115
:1012D0001F910F91FF90EF90DF9008958091660627
:1012E0008F5F80936606D12CEACFE0917706F0916C
:1012F00078060580F681E02D0680F781E02D828159
:101300009381909362068093610666CF9093620604
:1013100080936106BDCFFF920F931F93CF93DF930E
:101320000FB6F8940F9280915E06815080935E060E
:1013300080915E06811162C080916B06882309F45A
:101340005DC0C0E0D0E0FF24F39480916C06882358
:10135000A1F1E0917106F0917206C681D781CE01AC
:101360000C960E949D018E010E5F1F4FC8010E94C6
:101370009D018E8990916806981710F480936806F5
:1013800090E09C01220F331F220F331F220F331FC7
:10139000820F931FB8018557994F0E944B01E0912E
:1013A000AF06F091B0069E898689981770F2F09288
:1013B000650680916C068111CCCFCD2B69F0E09150
:1013C0007706F09178068081811125C08FEF9FEF1D
:1013D0009093620680936106C0916606CC2351F01B
:1013E000D1E00E94B1088111D0936506C150C9F7C0
:1013F0001092660680916506811109C080E00F9009
:101400000FBEDF91CF911F910F91FF9008950E9421
:101410006A0281E0F4CFE0917706F09178060580CA
:10142000F681E02D0680F781E02D828193819093F3
:10143000620680936106D0CFFC0190915E069F5FAB
:1014400090935E068091690690916A0620813181B1
:10145000620F731F8217930750F46217730750F0DF
:10146000718360830E948B09882399F00895621725
:10147000730718F08617970798F7718360839B01AD
:10148000281B390BC9010E9433070E948B09811167
:10149000EDCF0E946A02089580915E06811135C0E9
:1014A000109265062091680601C02150822F90E0BD
:1014B000AC01440F551F440F551F440F551FFA012F
:1014C000E80FF91FE557F94F3081332371F3840F8B
:1014D000951FDC01A557B94F1196ED91FC9112971C
:1014E0000280F381E02D1296FC93EE9311978257C0
:1014F000994FE817F90769F0868197819093B006B4
:101500008093AF0620936806089581E08093650676
:1015100008950280F381E02D1296FC93EE931197CB
:10152000EBCFCF93DF93EB016091AF067091B006E4
:10153000645F7F4F0E946C01CE01DF91CF910C94CC
:1015400033070F931F93CF93DF93DC011596ED9133
:10155000FC911697C681D7818E01045F1F4FC80189
:101560000E949D0180915E06811129C00A501109D7
:10157000C8010E949D018E8990916806981728F1F4
:1015800090E09C01220F331F220F331F220F331FC5
:10159000820F931FB8018557994F0E944B01E0912C
:1015A000AF06F091B0069E898689891788F481E09C
:1015B00080936506DF91CF911F910F910895B80137
:1015C0008CE696E00E944B01EACF80936806D8CF64
:1015D00080E0DF91CF911F910F91089520916406D3
:1015E000FC0120832091690630916A0632832183B1
:1015F0000895FC010FB6F8940F922091690630917E
:101600006A06809164069081981731F181819281F8
:1016100028173907E8F4DB014D915C91D901A81B2B
:10162000B90BA417B507A0F4421B530B840F951FE9
:10163000DB018D939C938091640680838091690681
:1016400090916A069283818380E00F900FBE089587
:1016500081E00F900FBE089581819281DCCF81E0FF
:101660008093650608950F931F93CF93DF93FC013A
:10167000892B89F12689A091AF06B091B0065696C4
:101680008C91281740F58485958597FD0CC0A09115
:10169000AF06B091B00656963C9184E090E0831B73
:1016A00091099587848730E0C901880F991F880FB9
:1016B000991F880F991F280F391F2557394F828589
:1016C00093858217930761F0A091AF06B091B006A1
:1016D00056968C91868BDF91CF911F910F91089533
:1016E0008F01EF012296CE010E949D01E091AF068D
:1016F000F091B0068689F801868B9091680698175C
:1017000010F48093680690E09C01220F331F220F93
:10171000331F220F331F820F931FBE018557994F2E
:10172000DF91CF911F910F910C944B010F931F9359
:10173000CF93DF93FC01892B49F082A1815082A3D2
:10174000268991A1291711F0882331F080E0DF91DB
:10175000CF911F910F910895EF018F010E5F1F4FE1
:10176000C8010E949D0129A12E8B822F90E044E0A8
:1017700050E0481B590B5D874C8730916806321743
:1017800010F4209368069C01220F331F220F331F91
:10179000220F331F820F931FB8018557994F0E9464
:1017A0004B0181E0DF91CF911F910F9108958091BE
:1017B000AF069091B006892B39F0E091AF06F09119
:1017C000B00682A18F5F82A38091AF069091B00690
:1017D0000895FB01DC0102C001900D924150504080
:0817E000D8F70895F894FFCF3B
:1017E800A00F01014C45445F36004C45445F37006B
:0617F80049444C450000CD
:00000001FF
